:020000040000FA
:100000000C9464000C9492110C946B110C948C0061
:100010000C948C000C948C000C948C000C94491063
:100020000C948C000C948C000C948C000C948C0020
:100030000C948C000C948C000C948C000C948C0010
:100040000C9421110C948C000C94EF100C94C9109A
:100050000C948C000C948C000C948C000C948C00F0
:100060000C94B9110C948C000000000024002700AF
:100070002A0000000000250028002B0000000000DE
:1000800023002600290004040404040404040202DA
:100090000202020203030303030301020408102007
:1000A0004080010204081020010204081020000012
:1000B0000008000201000003040700000000000027
:1000C000000002000313D41211241FBECFEFD8E0AA
:1000D000DEBFCDBF25E0A2EBB1E001C01D92A43D83
:1000E000B207E1F711E0A0E0B1E0EEE7F5E302C00E
:1000F00005900D92A23BB107D9F710E0C3E6D0E01E
:1001000004C02197FE010E94BA18C236D107C9F770
:100110000E94AB140C94B21A0C9400000895AF9294
:10012000BF92CF92DF92EF92FF920F931F93CF93E4
:10013000DF936C017B018B01040F151FEB015E0146
:10014000AE18BF08C017D10759F06991D601ED91DB
:10015000FC910190F081E02DC6010995892B79F77A
:10016000C501DF91CF911F910F91FF90EF90DF902C
:10017000CF90BF90AF900895FC01538D448D252FF3
:1001800030E0842F90E0821B930B541710F0CF9631
:10019000089501970895FC01918D828D981761F063
:1001A000A28DAE0FBF2FB11D5D968C91928D9F5F7A
:1001B0009F73928F90E008958FEF9FEF0895FC0159
:1001C000918D828D981731F0828DE80FF11D858D0C
:1001D00090E008958FEF9FEF0895FC01918D228D9F
:1001E000892F90E0805C9F4F821B91098F73992724
:1001F00008958AE894E00E94ED0021E0892B09F43B
:1002000020E0822F089580E090E0892B29F00E9461
:10021000F90081110C9400000895FC01A48DA80F31
:10022000B92FB11DA35ABF4F2C91848D90E0019638
:100230008F739927848FA689B7892C93A089B18958
:100240008C91837080648C93938D848D981306C0F9
:100250000288F389E02D80818F7D80830895EF925D
:10026000FF920F931F93CF93DF93EC0181E0888F70
:100270009B8D8C8D98131AC0E889F989808185FF40
:1002800015C09FB7F894EE89FF896083E889F989E2
:1002900080818370806480839FBF81E090E0DF91E4
:1002A000CF911F910F91FF90EF900895F62E0B8D37
:1002B00010E00F5F1F4F0F731127E02E8C8D8E11F2
:1002C0000CC00FB607FCFACFE889F989808185FF59
:1002D000F5CFCE010E940D01F1CFEB8DEC0FFD2F7C
:1002E000F11DE35AFF4FF0829FB7F8940B8FEA8914
:1002F000FB8980818062CFCFCF93DF93EC01888D23
:100300008823B9F0AA89BB89E889F9898C9185FD90
:1003100003C0808186FD0DC00FB607FCF7CF8C911E
:1003200085FFF2CF808185FFEDCFCE010E940D01C8
:10033000E9CFDF91CF910895833081F028F48130A7
:1003400099F08230A9F008958730A9F08830C9F07B
:100350008430B1F4809180008F7D03C08091800053
:100360008F7780938000089584B58F7784BD08953A
:1003700084B58F7DFBCF8091B0008F778093B000E4
:1003800008958091B0008F7DF9CFCF93DF93282F10
:1003900030E0F901E255FF4F8491F901E656FF4F35
:1003A000D491F901EA57FF4FC491CC23A1F08111F8
:1003B0000E949C01EC2FF0E0EE0FFF1FE458FF4F6E
:1003C000A591B491EC91ED2381E090E009F480E0F7
:1003D000DF91CF91089580E090E0FACF1F93CF9303
:1003E000DF93282F30E0F901E255FF4F8491F901A6
:1003F000E656FF4FD491F901EA57FF4FC491CC2341
:10040000A9F0162F81110E949C01EC2FF0E0EE0F55
:10041000FF1FEE58FF4FA591B4918FB7F894EC9160
:10042000111108C0D095DE23DC938FBFDF91CF91EF
:100430001F910895DE2BF8CFCF93DF9390E0FC015E
:10044000E656FF4F24918A579F4FFC0184918823E1
:10045000C9F090E0880F991FFC01E859FF4FA59162
:10046000B491FC01EE58FF4FC591D49161110DC0BC
:100470009FB7F8948C91209582238C9388812823B0
:1004800028839FBFDF91CF910895623051F49FB7C9
:10049000F8943C91822F809583238C93E8812E2BB6
:1004A000EFCF8FB7F894EC912E2B2C938FBFEACF20
:1004B0003FB7F89480910D0490910E04A0910F0421
:1004C000B091100426B5A89B05C02F3F19F00196E6
:1004D000A11DB11D3FBFBA2FA92F982F8827BC019E
:1004E000CD01620F711D811D911D42E0660F771FC6
:1004F000881F991F4A95D1F708958F929F92AF92C6
:10050000BF92CF92DF92EF92FF924B015C010E946B
:1005100058026B017C010E9458026C197D098E09FA
:100520009F09683E734081059105A8F321E0821A76
:100530009108A108B10888EEC80E83E0D81EE11C1E
:10054000F11C81149104A104B10429F7FF90EF90EC
:10055000DF90CF90BF90AF909F908F9008952FB76E
:10056000F8946091090470910A0480910B049091B1
:100570000C042FBF089508951F93CF93DF93C1E01C
:10058000C093C403882399F1D091B8001091BA00A8
:100590008091BC008A7B8093BC0060E082E10E9475
:1005A000EE0160E083E10E94EE0110926004C093CE
:1005B0005F0410925A0461E082E10E94EE0161E062
:1005C00083E10E94EE018091B9008E7F8093B90093
:1005D0008091B9008D7F8093B90088E48093B80042
:1005E00085E48093BC001093BA00D093B800DF91EB
:1005F000CF911F9108952091E503260F3327331FD4
:1006000021323105ECF420916004FC0190E080E09F
:10061000243069F082E00895A091E5032191AC01B6
:100620004B535C4FA40FB52FB11D2C930196861729
:1006300098F38091E503680F6093E50380E00895E7
:1006400081E008950895E091670480916604E817B9
:1006500030F4F0E0E859FB4F808190E008958FEF8F
:100660009FEF089590916704809166042FEF3FEF0C
:10067000981748F4E92FF0E0E859FB4F208130E06B
:100680009F5F90936704C9010895809166049091DB
:100690006704891B990B0895CF92DF92EF92FF9226
:1006A0000F931F93CF93DF937C01CB018A0120919D
:1006B0001604222389F0EB016B01C40ED51ECC1564
:1006C000DD0569F06991D701ED91FC910190F08110
:1006D000E02DC7010995F3CF642F0E94FB02C801EA
:1006E000DF91CF911F910F91FF90EF90DF90CF900E
:1006F0000895CF93DF931F92CDB7DEB76983209122
:1007000016042223F9F020913904203258F021E018
:1007100030E0FC013383228390E080E00F90DF9192
:10072000CF91089580911704E82FF0E0E85EFB4F29
:10073000998190838F5F809317048093390481E0BF
:1007400090E0ECCF61E0CE0101960E94FB02F7CF72
:100750002091BE01211109C021E02093BE013091FA
:100760003305209134053CBD2DBD60E0FC01848142
:100770000C94EE0161E0FC0184810E94EE01809105
:10078000BE0181111092BE0108958EBD00000DB40E
:1007900007FEFDCF8EB508958FEF0C94C5030F9320
:1007A0001F93CF93DF93EC010E94AF028B010E9455
:1007B000CC038F3F69F00E94AF02601B710B6C1776
:1007C0007D07A8F380E0DF91CF911F910F910895ED
:1007D00081E0F9CFCF92DF92EF92FF920F931F93B8
:1007E000CF93DF93EC01162F69017A018E81882364
:1007F00089F08F8198859C012F5F3F4F38872F8329
:100800008230924018F40E94CC03F3CFCE010E94B4
:10081000BA031E82CE010E94A8038CE291E00E94DE
:10082000CF03812F80640E94C50308E110E0D70147
:10083000C601002E04C0B695A795979587950A9492
:10084000D2F70E94C50308501109083F8FEF18071F
:1008500071F78FEF0E94C50310E00E94CC038A87D6
:1008600087FF04C01F3F11F01F5FF7CFDF91CF91CB
:100870001F910F91FF90EF90DF90CF900895CF924E
:10088000DF92EF92FF920F93CF93DF93EC01690118
:1008900082E1411551056105710599F08B85833021
:1008A00039F089E0440F551F661F771F8A95D1F7ED
:1008B0009A01AB0168E1CE010E94EA03882319F096
:1008C00084E08D832DC08EEF0E94C50376018EEFEC
:1008D000D81AF70181917F010E94C503EC14FD0431
:1008E000C1F78FEF0E94C5038FEF0E94C5030E94DE
:1008F000CC038A878F71853071F4011116C0CE0147
:100900000E94BA0381E0DF91CF910F91FF90EF90A9
:10091000DF90CF90089581E18D83CE010E94BA03CC
:10092000CE010E94BA0380E0EECF88E592E00E94FB
:10093000CF03811102C085E1C4CF20E030E0A901DE
:100940006DE0CE010E94EA03882311F084E1B9CF63
:100950000E94CC038111FACFD2CF0F934091C001F6
:100960005091C1016091C2017091C30141155105BF
:100970006105710589F0082F24EC31E090E080E0FA
:100980000E943F04882349F01092C0011092C101D7
:100990001092C2011092C30181E00F9108950F934C
:1009A000CF93C82F8091BF01811105C0C1E08C2F6A
:1009B000CF910F91089540910001509101016091F4
:1009C0000201709103010C2F24EC31E090E080E0F3
:1009D0000E943F04811102C0C0E0E9CFCC2331F373
:1009E00081E00E94AD048823B9F31092BF01DFCFEC
:1009F000AF92BF92CF92DF92EF92FF921F93CF936D
:100A0000DF936B017C01142F809100019091010113
:100A1000A0910201B09103018C159D05AE05BF05A3
:100A200009F4ADC081E00E94CF048823E1F18091F8
:100A300006008823A1F08091000090910100A09110
:100A40000200B0910300C816D906EA06FB0639F485
:100A50008091070090910800892B09F44FC0C09243
:100A60000000D0920100E0920200F0920300809119
:100A70000B00A7019601833039F099E0220F331F54
:100A8000441F551F9A95D1F761E190E080E00E94E4
:100A9000EA03882391F083E08093050090E080E0F2
:100AA0000E94BA0380E0DF91CF911F91FF90EF90F9
:100AB000DF90CF90BF90AF9008950E94AF02EB01FE
:100AC0000E94CC0380930A008F3F79F40E94AF020A
:100AD0006C1B7D0B6D32714098F38FE080930500A5
:100AE00090E080E00E94BA03D9CF8E3FC1F510920A
:100AF00008001092070081E080930600C4ECD1E06A
:100B000084ECA82E83E0B82E0E94CC038993AC1607
:100B1000BD06D1F780910700909108009E5F9093E9
:100B200008008093070020910900222319F0811505
:100B30009240E8F0809106008823C9F08091070078
:100B4000909108009C012F5F3F4F30930800209345
:100B500007008230924028F40E94CC03EFCF8DE052
:100B6000BDCF90E080E00E94BA0310920600C092D0
:100B70000001D0920101E0920201F0920301409144
:100B8000BF01412B4093BF0181E08DCF4F925F9217
:100B90006F927F928F929F92AF92BF92CF92DF928D
:100BA000EF92FF920F931F93CF93DF93EC014230AC
:100BB00051056105710590F480E0DF91CF911F919F
:100BC0000F91FF90EF90DF90CF90BF90AF909F90EC
:100BD0008F907F906F905F904F90089589859A8550
:100BE000AB85BC850196A11DB11D84179507A6078D
:100BF000B70710F3CB88DC88ED88FE888F898031B9
:100C000009F042C0BB27A72F962F852F4801590115
:100C10002A013B01C80ED91EEA1EFB1E809100016D
:100C200090910101A0910201B0910301C816D9066B
:100C3000EA06FB0699F58F898031C1F5B301A2015F
:100C4000552766277727440F551F4C535E4FFA01EF
:100C5000918280828091BF0181608093BF018A89E7
:100C6000823080F08D819E81AF81B8858C0D9D1D75
:100C7000AE1DBF1D8093C0019093C101A093C2011E
:100C8000B093C30181E099CFDB01CA01E7E0B695DB
:100C9000A79597958795EA95D1F7B8CF40E0C7011A
:100CA000B6010E94F8048111C6CF86CFB301A2011C
:100CB0004F77552766277727440F551F440F551F39
:100CC0004C535E4FFA0180829182A282B382C2CFDE
:100CD0008F929F92AF92BF92CF92DF92EF92FF924C
:100CE0000F931F93CF93DF93FC0181859285A3859A
:100CF000B4850196A11DB11D84179507A607B707F6
:100D000070F480E0DF91CF911F910F91FF90EF90F1
:100D1000DF90CF90BF90AF909F908F900895838881
:100D20009488A588B6888789803189F5BB27A72F45
:100D3000962F852FE9016A017B018F01BC01CD014E
:100D4000680D791D8A1D9B1D809000019090010106
:100D5000A0900201B090030186169706A806B90676
:100D600001F5F8018789803111F5DD24EE24FF2497
:100D7000F601EE0FFF1FEC53FE4F80819181B0E032
:100D8000A0E088839983AA83BB8381E0BBCFDB018A
:100D9000CA01C7E0B695A79597958795CA95D1F7EB
:100DA000C9CF40E00E94F8048111DBCFAACFE894BC
:100DB000C7F8DD24EE24FF24F601EE0FFF1FEE0F2F
:100DC000FF1FEC53FE4F80819181A281B381BF70E0
:100DD000D8CF8F929F92AF92BF92CF92DF92EF9235
:100DE000FF920F931F93CF93DF93EC018D818111BD
:100DF0000EC080E0DF91CF911F910F91FF90EF9097
:100E0000DF90CF90BF90AF909F908F9008950B8907
:100E10001C892D893E89041715072607370748F3D3
:100E20004A015B01823031F48A869B86AC86BD869E
:100E300081E0E0CF81149104A104B10449F41E8241
:100E40001F82188619861A861B861C861D86F0CF7F
:100E50000A851B852C853D85EB8DFC8D858590E075
:100E60000996B901A8014150510961097109082E7B
:100E700004C076956795579547950A94D2F7750102
:100E80006401E1E0CE1AD108E108F10804C0F6944B
:100E9000E794D794C7948A95D2F7C416D506E60688
:100EA000F70620F0012B022B032B11F58F89988D6B
:100EB000A98DBA8D8E839F83A887B9878E010A5F1B
:100EC0001F4FC114D104E104F10409F4ADCF4E81E8
:100ED0005F816885798598018B8D9C8D0E9468065D
:100EE00091E0C91AD108E108F1088111EACF81CF58
:100EF000C41AD50AE60AF70AE1CF3F924F925F92F1
:100F00006F927F928F929F92AF92BF92CF92DF9219
:100F1000EF92FF920F931F93CF93DF93CDB7DEB77E
:100F20002C970FB6F894DEBF0FBECDBF5C01DC017D
:100F30005B968D909C905C9716964D905D906D9011
:100F40007C901997411451046104710409F468C03C
:100F5000BFEF4B1A5B0A6B0A7B0A312CF4018185C7
:100F60009285A385B4859C01AD012F5F3F4F4F4F04
:100F70005F4F29873A874B875C87730162011D8227
:100F80001E821F821886F40181859285A385B4850F
:100F90002D813E814F815885281739074A075B0705
:100FA00008F056C089859A85AB85BC858C159D0552
:100FB000AE05BF0550F482E0C82ED12CE12CF12CF7
:100FC00092E0492E512C612C712C9E012F5F3F4FD6
:100FD000B701A601C4010E9468068823C9F189816E
:100FE0009A81AB81BC81892B8A2B8B2B09F126013D
:100FF00037019FEF491A590A690A790A2D813E8102
:101000004F8158852F5F3F4F4F4F5F4F2D833E835A
:101010004F8358873FEFC31AD30AE30AF30AB3CFCB
:10102000F40140805180628073803324339496CFE2
:10103000C414D504E604F70409F70FEF1FEF2FEFF0
:101040003FE0B701A601C4010E94C605811119C085
:1010500080E02C960FB6F894DEBF0FBECDBFDF91B7
:10106000CF911F910F91FF90EF90DF90CF90BF90A5
:10107000AF909F908F907F906F905F904F903F9038
:101080000895D50116964D915D916D917C911997BA
:10109000411551056105710539F097018601C401BB
:1010A0000E94C6058823A1F2D5011696CD92DD9245
:1010B000ED92FC921997332051F0D701C6010196A9
:1010C000A11DB11DF40180839183A283B383F50137
:1010D0008789908DA18DB28D892B8A2B8B2B39F42A
:1010E0008481C78AD08EE18EF28E80688483F50178
:1010F00084818062848381E0ACCF1F93CF93DF93A0
:10110000EC01162F8C8187FF2AC06E857F85888928
:10111000998941E00E94F804882361F1EA8980E21C
:10112000E89FF0011124EC53FE4F309719F18D81A7
:10113000823040F48B899C89AD89BE89848F958FDC
:10114000A68FB78F8F89988D938F828F8F89988D77
:10115000A98DBA8DB58BA48B8C818F778C8311115F
:1011600003C08C818F7E8C83812FDF91CF911F9163
:101170000C94CF0480E0DF91CF911F9108951F93CD
:10118000CF93DF93EC018D81813031F090E080E0EE
:10119000DF91CF911F9108958C8181FFF7CF82FD60
:1011A0001BC090E080E00E94A8030E94CC03182F8F
:1011B00090E080E00E94BA031F3F41F78C8185FFD9
:1011C0001EC08D81882321F060E0CE010E947D0841
:1011D0008C818F7D8C83DACF4B895C896D897E8988
:1011E0008A859B85AC85BD8584179507A607B707BB
:1011F000C1F2CE010E94E9068111D3CFC7CF409141
:10120000C0015091C1016091C2017091C301452B91
:10121000462B472B21F080E00E94AD04B7CF8061C0
:101220008C832A853B85317080E092E0821B930B92
:10123000AFCF9F92AF92BF92CF92DF92EF92FF9289
:101240000F931F93CF93DF9300D000D01F92CDB7A1
:10125000DEB78C016D83DC0115968C91159781307A
:1012600009F0B9C014968C9181FFB5C082FD9FC072
:10127000D8015B96ED91FC915C971A96AD90BD906C
:10128000CD90DC901D9794809A94B601A50189E0D9
:1012900076956795579547958A95D1F79422B1E051
:1012A000BB22992009F49FC0D8015B96ED91FC9177
:1012B0005C971696CD90DD90ED90FC901997B2E07A
:1012C000CB1AD108E108F108858504C0CC0CDD1CDF
:1012D000EE1CFF1C8A95D2F7468557856089718977
:1012E000C40ED51EE61EF71EC90CD11CE11CF11C54
:1012F000A114B10409F00AC1F8014285538564853F
:10130000758583899489A589B689481759076A071D
:101310007B0708F4FBC081E00E94CF04882309F416
:101320005AC0C0920001D0920101E0920201F092F5
:1013300003018091BF0181608093BF01F501EC53EF
:10134000FE4F8D818083F80182859385A485B585C4
:101350000196A11DB11D82879387A487B587438914
:10136000548965897689481759076A077B0738F4D5
:101370002481838B948BA58BB68B20682483D80122
:1013800014968C9183FD9FC081E090E00F900F90A8
:101390000F900F900F90DF91CF911F910F91FF90C1
:1013A000EF90DF90CF90BF90AF909F900895F8019D
:1013B000438954896589768982859385A485B58515
:1013C000481759076A077B0709F452CFC8010E94E2
:1013D000E90681114DCF81E090E0D80113969C93EE
:1013E0008E93129749C0D80116964D915D916D91DB
:1013F0007C911997A114B10409F071C041155105F0
:101400006105710589F557968D919D910D90BC915F
:10141000A02D0097A105B10509F04FC0C8010E9499
:101420007D078823C1F2D8015B96ED91FC915C9712
:101430001696CD90DD90ED90FC901997B2E0CB1A06
:10144000D108E108F108858504C0CC0CDD1CEE1C38
:10145000FF1C8A95D2F74685578560897189C40E2D
:10146000D51EE61EF71E48CF9E012F5F3F4FCF01CE
:101470000E946806811103C090E080E087CF8981D7
:101480009A81AB81BC81F801238D348DF9012789C4
:1014900048EF5FEF60E070E0203121F048EF5FEF50
:1014A0006FEF7FE084179507A607B70730F0C801F4
:1014B0000E947D078111F8CE8ECFF8018683978335
:1014C000A087B187F1CEF8018581882309F483CF05
:1014D00061E0C8010E947D08811156CF7CCF6A016E
:1014E0007B01B2E0CB1AD108E108F108858504C080
:1014F000CC0CDD1CEE1CFF1C8A95D2F74685578567
:1015000060897189C40ED51EE61EF71E41E0C70131
:10151000B6010E94F804811111CF5DCFCF93DF9304
:10152000EC0188819981DC01ED91FC910680F781C5
:10153000E02D0995688779878A879B87A881B9817B
:1015400014968C911497882359F014961C92149732
:10155000ED91FC9111970190F081E02DCD0109955D
:101560000E9458026C837D838E839F83DF91CF918D
:101570000895CF93DF93EC018E8583FF0BC08881A4
:101580009981009739F0DC01ED91FC910480F5819F
:10159000E02D0995198218821C821D821E821F82ED
:1015A00082E08C87F8941B821A8278941D86DF91E2
:1015B000CF910895CF92DF92EF92FF920F931F93F6
:1015C000CF93DF93EC018C858F70C884D984EA8433
:1015D000FB84811126C00E9458020C811D812E813E
:1015E0003F81DC01CB01801B910BA20BB30BC81612
:1015F000D906EA06FB0660F460E070E0CB01DF91FB
:10160000CF911F910F91FF90EF90DF90CF900895B1
:10161000A7019601281B390B4A0B5B0BCA01B901C4
:10162000EECF0E94AF020C811D812E813F81DC0133
:10163000CB01801B910BA20BB30BC816D906EA068F
:10164000FB06D0F2A7019601281B390B4A0B5B0B56
:10165000A8EEB3E00E946918D2CFDC01ED91FC91B5
:10166000F8948081811102C0789408951082FCCF93
:10167000DC016D937C93DC01ED91FC91F894208169
:10168000222311F07894F7CF81E080837894089535
:10169000EF92FF920F931F93CF93DF9300D0CDB7BC
:1016A000DEB77C018B01BC016E5E7F4FCE010196DF
:1016B0000E94380BF894F701A485B58578940A1731
:1016C0001B07E1F4F894F801828193817894F894EF
:1016D000F701958784877894F894F8011382128231
:1016E0007894CE0101960E942D0B0F900F90DF9100
:1016F000CF911F910F91FF90EF900895F89412965B
:10170000ED91FC9113977894309759F3E017F10716
:1017100061F4F894828193817894F89413969C9361
:101720008E9312977894F894D9CFF894828193810C
:101730007894DF01FC01E8CF8F929F92AF92BF9225
:10174000CF92DF92EF92FF920F931F93CF93DF938D
:1017500000D0CDB7DEB76C018B01BC016E5E7F4F50
:10176000CE0101960E94380BF894F601E484F584CA
:101770007894E114F104E9F4F894F80113821282E8
:101780007894F894F601158704877894CE01019631
:101790000E942D0B0F900F90DF91CF911F910F9111
:1017A000FF90EF90DF90CF90BF90AF909F908F9081
:1017B0000895C7010E94DA0A4B015C01C8010E942A
:1017C000DA0A86169706A806B90628F0F894F801F2
:1017D000F382E282D5CFF894F701C280D380789467
:1017E000C114D104F9F0C6010E94DA0A4B015C0170
:1017F000C8010E94DA0A681579058A059B0550F42C
:10180000F894F801D382C2827894F894F701138394
:101810000283BBCFF894F60182819381789476019C
:101820006C01DECFF894F80113821282EDCFFC0137
:1018300086858370823039F40190F081E02D8581B6
:1018400091E08927089584858295817008953F925B
:101850004F925F926F927F928F929F92AF92BF92C0
:10186000CF92DF92EF92FF920F931F93CF93DF936C
:101870008C016A017B010E9458024B015C014FE020
:10188000342ED8011F968C911F97882309F4A2C08B
:101890001F961C921F9750968D919C915197892B62
:1018A00039F05096ED91FC9151971E968C910995C7
:1018B000D8011A96ED91FC91EE0FFF1FE00FF11F7A
:1018C00080819181FC01E65AFF4F845A9F4F20810D
:1018D0003181FC0140805180420E531E712C612CDD
:1018E0004614570409F476C090E080E0D8011A96B7
:1018F0002D913C918217930708F042C00196FC019C
:10190000EE0FFF1FE00FF11FC081D181FE01E65AEB
:10191000FF4F208131816216730640F33296408179
:101920005181420F531F6416750600F7A301421B35
:10193000530B349E9001359E300D1124C20FD31FDE
:101940002097A1F28D858823B9F08E859D859923F6
:1019500099F08370823081F4CE010E948E0ABE011C
:10196000C8010E94480BCE010E94170C882359F031
:10197000BE01C8010E949C0BBFEF6B1A7B0AB0CF5F
:10198000D0E0C0E0DFCFCE010E94B90AF5CF0E94BF
:10199000AF0238C0DC01ED91FC910190F081E02DA7
:1019A0000995CE010E94170C882309F449C08C8543
:1019B0008F7051F40E9458026C837D838E839F83C5
:1019C0003FC0FC010995EDCF0E94AF02F5CFCE01DB
:1019D0000E94B90AF894F801C485D58578942097B7
:1019E00009F440C08D858823E9F18C8585FD3AC0D6
:1019F0008C858F70488459846A847B848111C7CF19
:101A00000E9458022C813D814E815F81621B730BC5
:101A1000840B950B641575058605970518F188816B
:101A20009981009781F02C8520622C872E85237068
:101A3000213009F4AFCF223021F6CE010E948E0A68
:101A40008C858F7D8C87BE01C8010E94480BCE011A
:101A50000E94170C882309F4BACFBE01C8010E9466
:101A60009C0BB8CF0E945802681979098A099B0912
:101A70006C157D058E059F0508F403CFDF91CF918E
:101A80001F910F91FF90EF90DF90CF90BF90AF909C
:101A90009F908F907F906F905F904F903F900895B0
:101AA00041E050E002C0440F551F6A95E2F7052E51
:101AB000000C660B770BFC0186819781A085B185B0
:101AC00084239523A623B72321E0892B8A2B8B2BF4
:101AD00009F420E0822F0895FC014681378120859A
:101AE0008185683010F4842F0895603110F4832FBD
:101AF0000895683108F4822F08950F931F93FC0115
:101B0000862F6032A8F050E070E060E080520281E1
:101B1000138124813581883070F40027042B152B24
:101B2000262B372B028313832483358381E082871E
:101B30001F910F910895803130F41127762F652F72
:101B4000542F4427EBCF883128F42227BA01552798
:101B50004427E4CF3327742F662755274427DECF49
:101B60000F931F93FC016032E0F082819381A48186
:101B7000B581605201E010E020E030E004C0000FC9
:101B8000111F221F331F6A95D2F7442369F0802B5F
:101B9000912BA22BB32B82839383A483B58381E003
:101BA00082871F910F91089500951095209530958B
:101BB00080239123A223B323EECF0895089508959F
:101BC000E62FF0E0EA57FF4FE491F0E0EE0FFF1F41
:101BD000E458FF4FA591B4918C910895E62FF0E061
:101BE000EA57FF4FE491F0E0EE0FFF1FEE58FF4F72
:101BF000A591B4914C9308956230A9F4622F70E0DE
:101C000080E0E82FF0E0EE0FFF1FEC5FFE4F518306
:101C10004083813071F0809169008C7F282B209364
:101C20006900E89A0895633079F4622F70E081E0EA
:101C3000E8CF80916900837F660F771F660F771F5B
:101C4000862B80936900E99A0895862F0E94C5012A
:101C50000895862F642F0C94EE01862F642F0C9428
:101C60001C02089581E00895089590E080E00895B1
:101C70000C945C190C945C199F92AF92BF92CF9216
:101C8000DF92EF92FF920F931F93CF93DF93EC01BC
:101C90008C858F3F09F444C060E08D850E94EE0181
:101CA0008FE090E00197F1F761E08D850E94EE01F1
:101CB0001E821F8218861986F12C8B85F81680F5F6
:101CC0008E819F81A885B985BA2FA92F982F882743
:101CD0008E839F83A887B987DE84CC8407E010E0D9
:101CE000E12C61E08D2D0E94EE018C2D0E94C5013A
:101CF000002E01C0880F0A94EAF7E82A60E08D2DD3
:101D00000E94EE010150110960F78E819F81A88524
:101D1000B9858E298E839F83A887B987F394CDCF09
:101D200088898F3FA1F18A85882389F160E08989BC
:101D30000E94EE018FE090E00197F1F7CA80DB800E
:101D4000EC80FD8010E08F851817E0F4BC2CAA8889
:101D5000988808E06B2D661F6627661F892D0E94F4
:101D6000EE01BB0C61E08A2D0E94EE0160E08A2D3D
:101D70000E94EE01015071F7CD2CDE2CEF2CFF24D8
:101D80001F5FE1CF1A8661E089890E94EE0181E040
:101D9000DF91CF911F910F91FF90EF90DF90CF9047
:101DA000BF90AF909F900895CF93DF93EC018B8D00
:101DB0009C8DDC01ED91FC910084F185E02D41E0EA
:101DC0006E8109958B8D9C8DDC01ED91FC910484D5
:101DD000F585E02D09958B8D9C8DDC01ED91FC91B5
:101DE0000084F185E02D40E06E8109958B8D9C8DFE
:101DF000DC01ED91FC910484F585E02DDF91CF911C
:101E00000994CF92DF92EF92FF920F931F93CF939B
:101E1000DF938C016C0127E0C20ED11CD0E0C0E042
:101E2000E62EF12CD8015B968D919C91F601619183
:101E30006F01A7010C2E02C0559547950A94E2F751
:101E40004170DC01ED91FC910084F185E02D099554
:101E50002196C430D10531F7C801DF91CF911F9190
:101E60000F91FF90EF90DF90CF900C94D40ECF9213
:101E7000DF92EF92FF920F931F93CF93DF93EC01CA
:101E8000F62E8B8D9C8DDC01ED91FC910084F1850B
:101E9000E02D6C8109956D816F3F51F08B8D9C8D8C
:101EA000DC01ED91FC910084F185E02D40E0099585
:101EB0000F2D10E08F8584FF34C06E01B7E0CB0E8C
:101EC000D11CF12CE12C8B8D9C8DF60161916F0161
:101ED000A8010E2C02C0559547950A94E2F741706F
:101EE000DC01ED91FC910084F185E02D0995BFEFB7
:101EF000EB1AFB0AE8E0EE16F10429F7CE010E9486
:101F0000D40E4A8950E070E060E08DEB95E0DF91FF
:101F1000CF911F910F91FF90EF90DF90CF900C9495
:101F2000270CB80184E0759567958A95E1F7CE0195
:101F30000E94010F6F2DCE010E94010FE2CF40E001
:101F4000682F8EE795E00C94370F41E00E94370F21
:101F500081E090E00895FB0101900020E9F73197BE
:101F6000AF01461B570BDC01ED91FC910280F38120
:101F7000E02D09948091BC019091BD01892B69F4F9
:101F800082E090E00E94C01823E131E0FC0131833F
:101F900020839093BD018093BC018091BC019091FE
:101FA000BD010895EF92FF920F931F93CF93DF939C
:101FB000EC017B018A0188819981009729F02A81AF
:101FC0003B812417350788F4B8016F5F7F4F0E946B
:101FD000E519009791F0998388831B830A832C81EC
:101FE0003D81232B11F4FC0110821D830C83B7016A
:101FF000888199810E94AB1A0CC0888199810097D1
:1020000011F00E945C19198218821D821C821B82A9
:102010001A82CE01DF91CF911F910F91FF90EF9027
:10202000089585ED8093BC008091620490916304D3
:10203000A0916404B09165040796A11DB11D23E031
:10204000B695A795979587952A95D1F72091BC00CD
:1020500024FD03C0109260040895409162045091E1
:1020600063046091640470916504452B462B472BF3
:1020700069F30097A105B10541F025E32A95F1F731
:1020800000000197A109B109E1CF809161040C948E
:10209000BC021F920F920FB60F9211242F933F9301
:1020A0004F935F936F937F938F939F93AF93BF9360
:1020B000EF93FF938091120490911304A091140464
:1020C000B0911504892B8A2B8B2BC1F190911104AF
:1020D00080910000892780930000809112049091E4
:1020E0001304A0911404B0911504181619061A06C9
:1020F0001B069CF48091120490911304A091140487
:10210000B09115040197A109B1098093120490932D
:102110001304A0931404B0931504FF91EF91BF91A1
:10212000AF919F918F917F916F915F914F913F916F
:102130002F910F900FBE0F901F901895809108015E
:10214000E2ECF0E0E4919FEF90930801E13051F070
:1021500030F0E23069F060E00E94EE01DECF1092D4
:102160006E00F9CF90916F009D7F90936F00F3CF39
:10217000909170009D7F9093700091E09093B000DB
:102180009091B100987F94609093B1001092B30049
:10219000E2CF1F920F920FB60F9211242F933F930D
:1021A0004F935F936F937F938F939F93AF93BF935F
:1021B000EF93FF938AE894E00E940D01FF91EF9165
:1021C000BF91AF919F918F917F916F915F914F914F
:1021D0003F912F910F900FBE0F901F9018951F9257
:1021E0000F920FB60F9211242F938F939F93EF931B
:1021F000FF93E0919A04F0919B048081E091A00408
:10220000F091A10482FD1BC090818091A3048F5F97
:102210008F732091A404821741F0E091A304F0E0B1
:10222000E657FB4F958F8093A304FF91EF919F9109
:102230008F912F910F900FBE0F901F901895808156
:10224000F4CF1F920F920FB60F9211242F933F934A
:102250008F939F93AF93BF938091090490910A0449
:10226000A0910B04B0910C043091080423E0230FDB
:102270002D3758F50196A11DB11D209308048093B8
:10228000090490930A04A0930B04B0930C0480916A
:102290000D0490910E04A0910F04B09110040196CA
:1022A000A11DB11D80930D0490930E04A0930F0403
:1022B000B0931004BF91AF919F918F913F912F9157
:1022C0000F900FBE0F901F90189526E8230F0296CF
:1022D000A11DB11DD2CF1F920F920FB60F921124E4
:1022E0002F933F934F935F936F937F938F939F931E
:1022F000AF93BF93EF93FF93E0910601F091070135
:102300000995FF91EF91BF91AF919F918F917F912F
:102310006F915F914F913F912F910F900FBE0F9052
:102320001F9018951F920F920FB60F9211242F93A2
:102330003F934F935F936F937F938F939F93AF934D
:10234000BF93EF93FF93E0910401F091050109958C
:10235000FF91EF91BF91AF919F918F917F916F917D
:102360005F914F913F912F910F900FBE0F901F9053
:1023700018951F920F920FB60F9211242F933F932F
:102380004F935F936F937F938F939F93AF93BF937D
:10239000EF93FF938091B900887F803609F44AC09B
:1023A000F0F5883209F4A5C018F5803109F499C018
:1023B000B8F4882309F4F5C0883009F492C0FF917D
:1023C000EF91BF91AF919F918F917F916F915F91AD
:1023D0004F913F912F910F900FBE0F901F90189526
:1023E000883109F486C0803251F780935E0414C0AE
:1023F000803409F49BC040F48033B9F38833F9F694
:1024000080935E0485ECAEC0803509F483C08835C6
:1024100009F494C0883499F60E941110D0CF8839FD
:1024200009F48AC038F5883729F050F4883611F05D
:10243000803729F683E0809360041092070455C02A
:10244000883809F479C0803919F0803809F0B7CF9D
:1024500080910704803208F06FC0E091070481E0AA
:102460008E0F809307048091BB00F0E0E951FC4F90
:1024700080833BC0803B39F0D0F4803A09F477C0C8
:10248000883A09F09CCF84E0809360041092E603C0
:102490001092E503F0E0E0E009958091E5038111F9
:1024A0000FC081E08093E5031092C50309C0803C12
:1024B00009F4A8CF883C09F4A5CF883B09F07FCF69
:1024C000E091E60381E08E0F8093E603F0E0EB53AA
:1024D000FC4F80818093BB009091E6038091E503DF
:1024E00029C080915B048093BB0085EC8093BC0085
:1024F00066CF90915D0480915C04981758F5E09147
:102500005D0481E08E0F80935D04F0E0E65CFB4F9C
:102510008081E9CFE0915D0481E08E0F80935D04BE
:102520008091BB00F0E0E65CFB4F808390915D04FE
:1025300080915C049817C8F285E8D8CFE0915D04DB
:1025400081E08E0F80935D048091BB00F0E0E65C3B
:10255000FB4F808380915F0481115ECF81E0809387
:102560005A0484EA8093BC001092600428CF85EC62
:102570008093BC001092600480910704803230F494
:10258000E0910704F0E0E951FC4F108260910704EC
:1025900070E087EE93E0F0E0E0E009951092070428
:1025A0000ECF10925E0438CFCF93DF938091A605B3
:1025B0009091A705009711F00E945C198091B605D3
:1025C0009091B705009711F00E945C198BE791E09C
:1025D0009093BE058093BD05D0E0C0E02091C70573
:1025E0003091C805C217D30758F42196FE01EE0FAB
:1025F000FF1FE354FA4F808191810E945C19EECF56
:10260000DF91CF9108950F931F93CF93DF93109293
:102610008D0410928C0488EE93E0A0E0B0E08093EB
:102620008E0490938F04A0939004B093910429E2B8
:1026300031E030938B0420938A0425EC30E0309312
:1026400097042093960424EC30E03093990420936F
:10265000980420EC30E030939B0420939A0421EC02
:1026600030E030939D0420939C0422EC30E03093C2
:102670009F0420939E0426EC30E03093A104209325
:10268000A0041092A3041092A4041092A504109226
:10269000A60410922A051092290580932B05909389
:1026A0002C05A0932D05B0932E058BE391E090931C
:1026B00028058093270580E5809333051092340523
:1026C00010923A0510923B0510923E05109240057B
:1026D00082E090E0A0E0B0E0809341059093420555
:1026E000A0934305B09344051092580510926205DB
:1026F000109261058DE491E09093600580935F05F1
:10270000109264058BE791E09093BE058093BD0520
:10271000EFEBF5E088E0DF011D928A95E9F7109272
:10272000CC05F8941092CA051092C90578941092BD
:10273000CE051092CD051092CB058EE590E00E945B
:10274000C018FC019C01265A3F4F42E04487108686
:10275000118612861386118210821686F8941382CF
:102760001282789415863F96E217F30779F7118263
:102770001082FC01E45AFF4F26E030E031832083D1
:102780009093C0058093BF0581E090E09093C805C9
:102790008093C7051092CF0582E390E00E94C01895
:1027A000FC01AC014E5C5F4F2FEF25832283178223
:1027B00016821382108211821186108614823A9634
:1027C000E417F50791F79093B7058093B60521E0DC
:1027D0002093BA05892B09F0BCC080E08093B8052E
:1027E0001092B9051092B5051092B4051092BB0570
:1027F00001E00093BC051092AD051092AC0510925B
:10280000AF051092AE051092B1051092B00510926E
:10281000B3051092B2058CE080939B058DE0809308
:102820009C0510929D0561E08CE00E941C0260E016
:1028300080919C050E941C0280E29EE4A0E0B0E032
:102840008093A2059093A305A093A405B093A5053A
:102850001092A7051092A6051092A9051092A8053E
:102860001092AB051092AA054AE050E06DE771E0C6
:1028700086EA95E00E94D20F83E190E00E94C018A2
:10288000EC0185E691E0998388830A871A821B828E
:102890001C821D821FEF1E871C871D878AE0898B83
:1028A0008BE0888B89E08A8B1E821F8218861986AE
:1028B0000B870F8761E08AE00E941C0261E08BE0D9
:1028C0000E941C0261E089E00E941C0260E08AE034
:1028D0000E94EE01109281051092800589E591E039
:1028E00090937F0580937E0587E280938205109305
:1028F000830586E2809384051093930510929205D8
:1029000010929105209719F40E94BA0FEC01D09310
:102910009A05C093990588E28093900583E280939D
:10292000850582E28093860581E28093870580E2B7
:10293000809388051092890510928A0510928B0564
:1029400010928C0510928D05DF91CF911F910F9100
:10295000089585E043CFCF93DF9300D000D000D01F
:10296000CDB7DEB7789484B5826084BD84B58160CC
:1029700084BD85B5826085BD85B5816085BD80914A
:102980006E00816080936E001092810080918100C2
:1029900082608093810080918100816080938100BA
:1029A000809180008160809380008091B10084607C
:1029B0008093B1008091B00081608093B0008091DD
:1029C0007A00846080937A0080917A00826080939C
:1029D0007A0080917A00816080937A0080917A00F9
:1029E000806880937A001092C100E0919A04F0917F
:1029F0009B0482E08083E0919604F091970410821A
:102A0000E0919804F09199048FEC80831092A204D5
:102A1000E0919E04F0919F0486E08083E0919C0405
:102A2000F0919D04808180618083E0919C04F0910D
:102A30009D04808188608083E0919C04F0919D04D6
:102A4000808180688083E0919C04F0919D04808166
:102A50008F7D80838091990590919A05892B31F41F
:102A60000E94BA0F90939A058093990580918D05E5
:102A7000886080938D0582E080939405109295057F
:102A800080E48093960580E18093970580E58093AC
:102A900098058091990590919A05DC01ED91FC9142
:102AA0000680F781E02D41E06091820509956091F3
:102AB00083056F3F61F08091990590919A05DC0143
:102AC000ED91FC910680F781E02D41E00995809120
:102AD000990590919A05DC01ED91FC910680F781B2
:102AE000E02D41E06091840509950EE715E098011D
:102AF0002E57354080918D0584FD17C084E090E00D
:102B00000F5F1F4F281739079CF48091990590910A
:102B10009A05DC01ED91FC910680F781E02D41E002
:102B2000D80116966C910995E2CF88E090E0E8CF45
:102B300040E553EC60E070E08DEB95E00E94270CDF
:102B40008091990590919A05DC01ED91FC910084AA
:102B5000F185E02D40E0609182050995809199050D
:102B600090919A05DC01ED91FC910084F185E02DB6
:102B700040E0609184050995609183056F3F61F0A5
:102B80008091990590919A05DC01ED91FC9100846A
:102B9000F185E02D40E009958091990590919A0585
:102BA000DC01ED91FC910484F585E02D099580917F
:102BB0008D0584FDDEC063E08EE795E00E94010F85
:102BC00044E951E160E070E08DEB95E00E94270C54
:102BD00063E08EE795E00E94010F44E951E160E077
:102BE00070E08DEB95E00E94270C63E08EE795E0A6
:102BF0000E94010F46E950E060E070E08DEB95E047
:102C00000E94270C62E08EE795E00E94010F809100
:102C10008D0580620E949F0F84E080938E058CE07A
:102C20000E949F0F81E00E949F0F40ED57E060E0FF
:102C300070E08DEB95E00E94270C82E080938F0579
:102C400086E00E949F0F68E871E08EE795E00E94A1
:102C5000AB0F05EE35ECF32E42E0342EEE24EA9471
:102C600056E0852E93E0C92ED12C20E0A22E20E044
:102C7000B22E11E088E6982E109316049092380434
:102C8000109217041092390460E087E295E00E94E8
:102C9000790320903904B0E2B21508F4ADC00E9467
:102CA00058022B013C0180916004811180C0309258
:102CB000600410935F04E0925E0410925D04209221
:102CC0005C04A8E1B4E0EAE3F4E0281205C1109244
:102CD0005B0480915B04806D80935B0480915A0457
:102CE000813009F0FDC010925A040E9458022B0155
:102CF0003C0180915B048093BB00809162049091C1
:102D00006304A0916404B0916504892B8A2B8B2BFA
:102D1000A1F00E9458022091620430916304409116
:102D2000640450916504641975098609970926178A
:102D300037074807590708F45BC08091BC0083FD42
:102D4000D8CFF092BC000E9458022B013C01809128
:102D50006004823009F4C7C080915E048F3F09F49B
:102D60004BC080915E04803209F446C080915E04BD
:102D700043C080620E949F0F44E951E160E070E02F
:102D80008DEB95E00E94270C80918D0580620E945A
:102D90009F0F46E950E060E070E08DEB95E00E9407
:102DA000270C80918D0580620E949F0F30CF80910B
:102DB000620490916304A0916404B0916504892B2E
:102DC0008A2B8B2B09F46FCF0E945802209162044A
:102DD000309163044091640450916504641975094D
:102DE00086099709261737074807590708F05BCF68
:102DF000809161040E94BC02109217041092390461
:102E0000109216040E9458022B013C01809160042C
:102E100081118BC01093600410935F04E0925E04F4
:102E200010925D0480925C0410935B0480915B04BB
:102E3000806D80935B0480915A04813009F022C137
:102E400010925A040E9458022B013C0180915B04AD
:102E50008093BB008091620490916304A09164040C
:102E6000B0916504892B8A2B8B2BA1F00E9458020C
:102E70002091620430916304409164045091650490
:102E800064197509860997092617370748075907EE
:102E900008F46CC08091BC0083FDD8CFF092BC00D8
:102EA0000E9458022B013C0180916004813009F49A
:102EB000ECC080915D04873008F009C180915D0409
:102EC000AAE3B4E0E8E6F4E090E0981709F453C010
:102ED0002D9121939F5FF9CF9D9191938F5FF5CEB7
:102EE0000093BC0030CF8091620490916304A09164
:102EF0006404B0916504892B8A2B8B2B09F427CFAE
:102F00000E9458022091620430916304409164044D
:102F100050916504641975098609970926173707C2
:102F20004807590708F013CF63CF8091620490914E
:102F30006304A0916404B0916504892B8A2B8B2BC8
:102F400009F464CF0E945802209162043091630416
:102F500040916404509165046419750986099709C4
:102F6000261737074807590708F050CF80916104AA
:102F70000E94BC0280E0109267048093660487E29E
:102F800095E00E94320387E295E00E94320387E2D7
:102F900095E00E94320387E295E00E94320387E2C7
:102FA00095E00E94320387E295E00E94320387E2B7
:102FB00095E00E9432031A8219821C821B821E82B3
:102FC0001D8250E040E064EA71E0CE0101960E946B
:102FD000D20FD0928904C0928804E1E080919405D8
:102FE0008111E0E0E195F0E0E258FA4F87898068CE
:102FF0000E949F0F81E00E949F0F40ED57E060E02C
:1030000070E08DEB95E00E94270C69E971E08EE796
:1030100095E00E94AB0F69E971E08AE894E00E94B4
:10302000AB0F4CE050E065EA71E086EA95E00E9463
:10303000D20F809188049091890406970E9750F4DE
:1030400068EE73E080E090E00E947D02D0928904F7
:10305000C092880464E670E080E090E00E947D0207
:1030600089819A81009711F00E945C19A114B10422
:1030700009F402CE0E94F900882309F4FACD0E94D7
:103080000000F0CD0093BC000BCF809162049091C2
:103090006304A0916404B0916504892B8A2B8B2B67
:1030A00009F402CF0E945802209162043091630417
:1030B0004091640450916504641975098609970963
:1030C000261737074807590708F0EECE4FCF87E09D
:1030D000F7CE0E94AB18A59F900DB49F900DA49FB2
:1030E000800D911D112408952F923F924F925F926F
:1030F0006F927F928F929F92AF92BF92CF92DF9208
:10310000EF92FF920F931F93CF93DF93CDB7DEB76C
:10311000CA1BDB0B0FB6F894DEBF0FBECDBF099400
:103120002A88398848885F846E847D848C849B8457
:10313000AA84B984C884DF80EE80FD800C811B8165
:10314000AA81B981CE0FD11D0FB6F894DEBF0FBE94
:10315000CDBFED010895A29FB001B39FC001A39F11
:10316000700D811D1124911DB29F700D811D1124C0
:10317000911D0895EE0FFF1F0590F491E02D099425
:103180000F931F93CF93DF938230910510F482E069
:1031900090E0E091D205F091D30530E020E0B0E07E
:1031A000A0E0309799F42115310509F44AC0281B95
:1031B000390B24303105D8F58A819B816115710561
:1031C00089F1FB0193838283FE0111C0408151810B
:1031D0000281138148175907E0F04817590799F4FD
:1031E000109761F012960C93129713961C933296D7
:1031F000CF01DF91CF911F910F9108950093D205D8
:103200001093D305F4CF2115310551F04217530720
:1032100038F0A901DB019A01BD01DF01F801C1CF3E
:10322000EF01F9CF9093D3058093D205CDCFFE0166
:10323000E20FF31F81939193225031093983288340
:10324000D7CF2091D0053091D105232B41F4209187
:103250000B0130910C013093D1052093D0052091C2
:10326000090130910A012115310541F42DB73EB70E
:1032700040910D0150910E01241B350BE091D005BA
:10328000F091D105E217F307A0F42E1B3F0B28178E
:10329000390778F0AC014E5F5F4F2417350748F0CF
:1032A0004E0F5F1F5093D1054093D00581939193AA
:1032B0009FCFF0E0E0E09CCFCF93DF930097E9F061
:1032C000FC01329713821282A091D205B091D305EE
:1032D000ED0130E020E01097A1F420813181820FD0
:1032E000931F2091D0053091D1052817390709F097
:1032F00061C0F093D105E093D005DF91CF9108959F
:10330000EA01CE17DF07E8F54A815B819E0141158E
:103310005105B1F7E901FB83EA8349915991C40F43
:10332000D51FEC17FD0761F4808191810296840F0F
:10333000951FE90199838883828193819B838A8386
:10334000F0E0E0E012968D919C9113970097B9F50B
:103350002D913C911197CD010296820F931F2091E0
:10336000D0053091D1052817390739F6309751F536
:103370001092D3051092D205B093D105A093D00539
:10338000BCCFD383C28340815181840F951FC8175E
:10339000D90761F44E5F5F4F88819981480F591FAB
:1033A000518340838A819B819383828321153105D8
:1033B00009F0B0CFF093D305E093D2059ECFFD0185
:1033C000DC01C0CF13821282D7CFB0E0A0E0EBEED9
:1033D000F9E10C9476188C01009751F4CB010E940E
:1033E000C0188C01C801CDB7DEB7E0E10C9492188B
:1033F000FC01E60FF71F9C0122503109E217F30789
:1034000008F49DC0D901CD91DC911197C617D7075B
:1034100098F0C530D10530F3CE0104978617970791
:1034200008F3C61BD70B2297C193D1936D937C935E
:10343000CF010E945C19D6CF5B01AC1ABD0A4C01CA
:103440008C0E9D1EA091D205B091D305512C412C1C
:10345000F12CE12C109731F58091D0059091D10598
:103460008815990509F05CC04616570608F058C043
:103470008091090190910A01009741F48DB79EB7A0
:1034800040910D0150910E01841B950BE817F9072F
:1034900008F055C0F093D105E093D005F901718390
:1034A0006083A0CF8D919C91119712966C9012978A
:1034B00013967C901397A815B90559F56C0142E055
:1034C000C40ED11CCA14DB0420F1AC014A195B09FB
:1034D000DA011296159780F06282738251834083DD
:1034E000D9016D937C93E114F10471F0D701139627
:1034F000FC93EE93129776CF22968C0F9D1FF901C5
:1035000091838083F301EFCFF093D305E093D2054D
:1035100069CF4816590608F42C017D01D3019ACFD2
:10352000CB010E94C0187C01009749F0AE01B801A0
:103530000E94A21AC8010E945C19870153CF10E0B3
:1035400000E050CFFB01DC0102C001900D92415020
:103550005040D8F70895FB01DC0101900D92002046
:10356000E1F7089510E0C3E6D0E004C0FE010E9438
:10357000BA182196C436D107C9F7F894FFCFFFFFD8
:10358000FFFFBB02BB02FF0000D40580000000006B
:1035900000FC0D310E3A0E2D0E290E250E320EEEC8
:1035A0000DE00D000000002F018F00BC007C01ED3C
:1035B00000CB00DF000000000079034C03350E2231
:1035C000034503320323030000000019098F00BFE5
:1035D00008340E00000000A50F8F00350E340E00D9
:1035E000000000DE0DDF0D380EDD0DB00D500D3C7E
:1035F0000E7D0D6C0D00000000270C554E44454615
:10360000494E45443F00506F737475726520547283
:1036100061636B696E67004B65657020676F696EEB
:10362000672100474F4F4420504F53545552450097
:107800000C94343C0C94513C0C94513C0C94513CE1
:107810000C94513C0C94513C0C94513C0C94513CB4
:107820000C94513C0C94513C0C94513C0C94513CA4
:107830000C94513C0C94513C0C94513C0C94513C94
:107840000C94513C0C94513C0C94513C0C94513C84
:107850000C94513C0C94513C0C94513C0C94513C74
:107860000C94513C0C94513C11241FBECFEFD8E036
:10787000DEBFCDBF11E0A0E0B1E0ECE9FFE702C060
:1078800005900D92A230B107D9F712E0A2E0B1E065
:1078900001C01D92AD30B107E1F70E942D3D0C945F
:1078A000CC3F0C94003C982F959595959595959582
:1078B000905D8F708A307CF0282F295A8091C0000B
:1078C00085FFFCCF9093C6008091C00085FFFCCF60
:1078D0002093C6000895282F205DF0CF982F809127
:1078E000C00085FFFCCF9093C6000895EF92FF92F1
:1078F0000F931F93EE24FF2487018091C00087FD22
:1079000017C00894E11CF11C011D111D81E4E8164B
:1079100082E4F8068FE0080780E0180770F3E09132
:107920000401F091050109958091C00087FFE9CF1E
:107930008091C6001F910F91FF90EF9008950E94D3
:10794000763C982F8091C00085FFFCCF9093C600B5
:1079500091362CF490330CF09053892F089597555D
:10796000892F08951F930E949F3C182F0E949F3CCF
:107970001295107F810F1F9108951F93182F882350
:1079800021F00E94763C1150E1F71F9108951F935A
:10799000182F0E94763C803249F0809103018F5F5E
:1079A000809303018530C1F01F9108958091C0003C
:1079B00085FFFCCF84E18093C6008091C00085FFE5
:1079C000FCCF1093C6008091C00085FFFCCF80E102
:1079D0008093C6001F910895E0910401F091050184
:1079E00009951F9108950E94763C803241F0809164
:1079F00003018F5F80930301853081F008958091AA
:107A0000C00085FFFCCF84E18093C6008091C00058
:107A100085FFFCCF80E18093C6000895E0910401CA
:107A2000F09105010995089540E951E08823A1F0FE
:107A30002D9A28EE33E0FA013197F1F721503040CA
:107A4000D1F72D9828EE33E0FA013197F1F7215064
:107A50003040D1F7815061F708953F924F925F9285
:107A60006F927F928F929F92AF92BF92CF92DF924E
:107A7000EF92FF920F931F93CF93DF93000080E16B
:107A80008093C4001092C50088E18093C10086E015
:107A90008093C2005098589A259A81E00E94143D24
:107AA00024E1F22E9EE1E92E85E9D82E0FE0C02ECA
:107AB00010E1B12EAA24A394B1E49B2EA6E58A2E50
:107AC000F2E57F2EE0E26E2E79E4572E63E5462E36
:107AD00050E5352E0E94763C8033B1F18133B9F107
:107AE000803409F46FC0813409F476C0823409F41B
:107AF00085C0853409F488C0803531F1823521F1A3
:107B0000813511F1853509F485C0863509F48DC0BC
:107B1000843609F496C0843709F403C1853709F423
:107B200072C1863709F466C0809103018F5F80932C
:107B30000301853079F6E0910401F0910501099582
:107B40000E94763C803351F60E94F33CC3CF0E94E2
:107B5000763C803249F78091C00085FFFCCFF092DF
:107B6000C6008091C00085FFFCCF9092C600809136
:107B7000C00085FFFCCF8092C6008091C00085FFC9
:107B8000FCCF7092C6008091C00085FFFCCF609250
:107B9000C6008091C00085FFFCCF5092C600809146
:107BA000C00085FFFCCF4092C6008091C00085FFD9
:107BB000FCCF3092C6008091C00085FFFCCFB09210
:107BC000C60088CF0E94763C863808F4BDCF0E945C
:107BD000763C0E94F33C7ECF0E94763C803809F4CC
:107BE0009CC0813809F40BC1823809F43CC1883942
:107BF00009F48FC080E00E94C73C6CCF84E10E94F2
:107C0000BD3C0E94F33C66CF85E00E94BD3C0E94D3
:107C1000F33C60CF0E94763C809306010E94763C44
:107C2000809307010E94F33C55CF0E94763C80333D
:107C300009F41DC183E00E94BD3C80E00E94C73C66
:107C400049CF0E94763C809309020E94763C809343
:107C5000080280910C028E7F80930C020E94763C79
:107C6000853409F415C18091080290910902892B8D
:107C700089F000E010E00E94763CF801E85FFE4FDA
:107C800080830F5F1F4F80910802909109020817AF
:107C9000190788F30E94763C803209F045CF809125
:107CA0000C0280FF01C16091060170910701660F0F
:107CB000771F7093070160930601A0910802B091AD
:107CC00009021097C9F0E8E0F1E09B01AD014E0F09
:107CD0005F1FF999FECF32BD21BD819180BDFA9A17
:107CE000F99A2F5F3F4FE417F50799F76A0F7B1F4B
:107CF00070930701609306018091C00085FFFCCF5F
:107D0000F092C6008091C00085FFFCCFB092C60003
:107D1000E1CE83E00E94C73CDDCE82E00E94C73CFA
:107D2000D9CE0E94763C809309020E94763C8093D3
:107D300008028091060190910701880F991F909386
:107D40000701809306010E94763C853409F4A6C0A1
:107D500080910C028E7F80930C020E94763C8032D0
:107D600009F0B8CE8091C00085FFFCCFF092C6002C
:107D7000609108027091090261157105B9F140E046
:107D800050E080910C02A82FA170B82FB27011C0E2
:107D9000BB2309F45CC0E0910601F0910701319624
:107DA000F0930701E09306014F5F5F4F46175707B7
:107DB000E8F4AA2369F3F999FECF209106013091E6
:107DC000070132BD21BDF89A90B58091C00085FFB2
:107DD000FCCF9093C6002F5F3F4F30930701209355
:107DE00006014F5F5F4F4617570718F38091C00099
:107DF00085FDE5CE8091C00085FFF8CFE0CE81E023
:107E00000E94C73C67CE0E94763C803209F08CCE3F
:107E10008091C00085FFFCCFF092C6008091C00029
:107E200085FFFCCFE092C6008091C00085FFFCCFAB
:107E3000D092C6008091C00085FFFCCFC092C600E2
:107E40008091C00085FFFCCFB092C60043CEE09188
:107E50000601F091070194918091C00085FFFCCF4D
:107E60009093C6009CCF80E10E94C73C33CE0E9415
:107E7000763C0E94763C182F0E94763C112309F430
:107E800083C0113009F484C08FE00E94C73C22CE29
:107E900080910C02816080930C02E5CE80910C02EF
:107EA000816080930C0259CF809107018823880F4D
:107EB000880B8A2180930B02809106019091070123
:107EC000880F991F90930701809306018091080203
:107ED00080FF09C080910802909109020196909359
:107EE000090280930802F894F999FECF1127E091D6
:107EF0000601F0910701C8E0D1E08091080290915D
:107F00000902103091F40091570001700130D9F34B
:107F100003E000935700E89500915700017001308D
:107F2000D9F301E100935700E89509901990009169
:107F3000570001700130D9F301E000935700E89534
:107F40001395103498F011270091570001700130FB
:107F5000D9F305E000935700E895009157000170B0
:107F60000130D9F301E100935700E895329602976A
:107F700009F0C7CF103011F00296E5CF112480919F
:107F8000C00085FFB9CEBCCE8EE10E94C73CA2CD19
:0E7F900085E90E94C73C9ECDF894FFCF80008B
:00000001FF
